{
  "contractName": "ExpenseTracker",
  "abi": [
    {
      "constant": true,
      "inputs": [],
      "name": "expenses",
      "outputs": [
        {
          "internalType": "uint256",
          "name": "",
          "type": "uint256"
        }
      ],
      "payable": false,
      "stateMutability": "view",
      "type": "function"
    },
    {
      "constant": true,
      "inputs": [],
      "name": "income",
      "outputs": [
        {
          "internalType": "uint256",
          "name": "",
          "type": "uint256"
        }
      ],
      "payable": false,
      "stateMutability": "view",
      "type": "function"
    }
  ],
  "bytecode": "0x608060405260008055600060015534801561001957600080fd5b5060b0806100286000396000f3fe6080604052348015600f57600080fd5b506004361060325760003560e01c806388b45046146037578063e4c5676c146053575b600080fd5b603d606f565b6040518082815260200191505060405180910390f35b60596075565b6040518082815260200191505060405180910390f35b60015481565b6000548156fea265627a7a7231582010d117f180da23f40f7349974d1e56df95ad445b28a917b9e20f683d205f44f764736f6c63430005100032",
  "source": "pragma solidity >=0.5.0;\r\n\r\ncontract ExpenseTracker {\r\n    uint public expenses = 0;\r\n    uint public income = 0;\r\n}",
  "sourcePath": "D:/Projects/Block Ventures/ExpenseTrackerApp/contracts/ExpenseTracker.sol",
  "compiler": {
    "name": "solc",
    "version": "0.5.16+commit.9c3226ce.Emscripten.clang"
  },
  "schemaVersion": "3.4.1",
  "updatedAt": "2021-06-19T14:21:27.509Z",
  "networkType": "ethereum",
  "devdoc": {
    "methods": {}
  },
  "userdoc": {
    "methods": {}
  }
}